{
  "contractName": "Consortium",
  "abi": [
    {
      "constant": true,
      "inputs": [
        {
          "name": "",
          "type": "uint256"
        }
      ],
      "name": "proposals",
      "outputs": [
        {
          "name": "title",
          "type": "string"
        },
        {
          "name": "voteCount",
          "type": "uint256"
        },
        {
          "name": "creator",
          "type": "address"
        },
        {
          "name": "votes",
          "type": "uint256"
        }
      ],
      "payable": false,
      "stateMutability": "view",
      "type": "function"
    },
    {
      "constant": true,
      "inputs": [
        {
          "name": "",
          "type": "address"
        }
      ],
      "name": "entities",
      "outputs": [
        {
          "name": "",
          "type": "bool"
        }
      ],
      "payable": false,
      "stateMutability": "view",
      "type": "function"
    },
    {
      "constant": true,
      "inputs": [
        {
          "name": "",
          "type": "address"
        }
      ],
      "name": "voters",
      "outputs": [
        {
          "name": "weight",
          "type": "uint256"
        },
        {
          "name": "voted",
          "type": "bool"
        },
        {
          "name": "delegate",
          "type": "address"
        },
        {
          "name": "vote",
          "type": "uint256"
        }
      ],
      "payable": false,
      "stateMutability": "view",
      "type": "function"
    },
    {
      "constant": true,
      "inputs": [],
      "name": "numEntities",
      "outputs": [
        {
          "name": "",
          "type": "uint256"
        }
      ],
      "payable": false,
      "stateMutability": "view",
      "type": "function"
    },
    {
      "constant": true,
      "inputs": [],
      "name": "voterEntity",
      "outputs": [
        {
          "name": "",
          "type": "address"
        }
      ],
      "payable": false,
      "stateMutability": "view",
      "type": "function"
    },
    {
      "constant": true,
      "inputs": [],
      "name": "quota",
      "outputs": [
        {
          "name": "",
          "type": "uint256"
        }
      ],
      "payable": false,
      "stateMutability": "view",
      "type": "function"
    },
    {
      "inputs": [],
      "payable": false,
      "stateMutability": "nonpayable",
      "type": "constructor"
    },
    {
      "constant": false,
      "inputs": [],
      "name": "AddEntity",
      "outputs": [],
      "payable": false,
      "stateMutability": "nonpayable",
      "type": "function"
    },
    {
      "constant": false,
      "inputs": [],
      "name": "RemoveEntity",
      "outputs": [],
      "payable": false,
      "stateMutability": "nonpayable",
      "type": "function"
    },
    {
      "constant": false,
      "inputs": [
        {
          "name": "title",
          "type": "string"
        }
      ],
      "name": "Propose",
      "outputs": [],
      "payable": false,
      "stateMutability": "nonpayable",
      "type": "function"
    },
    {
      "constant": false,
      "inputs": [
        {
          "name": "positive",
          "type": "bool"
        }
      ],
      "name": "Vote",
      "outputs": [],
      "payable": false,
      "stateMutability": "nonpayable",
      "type": "function"
    }
  ],
  "bytecode": "0x608060405234801561001057600080fd5b506107d06003819055506000600481905550610815806100316000396000f3006080604052600436106100a4576000357c0100000000000000000000000000000000000000000000000000000000900463ffffffff168063013cf08b146100a95780630b89222e146101905780631d8ee48a146101a75780633e9042c0146102025780636888313614610219578063a3ec138d14610282578063b87b7b9d1461031e578063bdae26d914610349578063cebe09c9146103a0578063e1590d7d146103cb575b600080fd5b3480156100b557600080fd5b506100d4600480360381019080803590602001909291905050506103fa565b60405180806020018581526020018473ffffffffffffffffffffffffffffffffffffffff1673ffffffffffffffffffffffffffffffffffffffff168152602001838152602001828103825286818151815260200191508051906020019080838360005b83811015610152578082015181840152602081019050610137565b50505050905090810190601f16801561017f5780820380516001836020036101000a031916815260200191505b509550505050505060405180910390f35b34801561019c57600080fd5b506101a56104f1565b005b3480156101b357600080fd5b506101e8600480360381019080803573ffffffffffffffffffffffffffffffffffffffff1690602001909291905050506104f3565b604051808215151515815260200191505060405180910390f35b34801561020e57600080fd5b50610217610513565b005b34801561022557600080fd5b50610280600480360381019080803590602001908201803590602001908080601f0160208091040260200160405190810160405280939291908181526020018383808284378201915050505050509192919290505050610556565b005b34801561028e57600080fd5b506102c3600480360381019080803573ffffffffffffffffffffffffffffffffffffffff16906020019092919050505061065a565b60405180858152602001841515151581526020018373ffffffffffffffffffffffffffffffffffffffff1673ffffffffffffffffffffffffffffffffffffffff16815260200182815260200194505050505060405180910390f35b34801561032a57600080fd5b506103336106b7565b6040518082815260200191505060405180910390f35b34801561035557600080fd5b5061035e6106bd565b604051808273ffffffffffffffffffffffffffffffffffffffff1673ffffffffffffffffffffffffffffffffffffffff16815260200191505060405180910390f35b3480156103ac57600080fd5b506103b56106e3565b6040518082815260200191505060405180910390f35b3480156103d757600080fd5b506103f86004803603810190808035151590602001909291905050506106e9565b005b60058181548110151561040957fe5b9060005260206000209060040201600091509050806000018054600181600116156101000203166002900480601f0160208091040260200160405190810160405280929190818152602001828054600181600116156101000203166002900480156104b55780601f1061048a576101008083540402835291602001916104b5565b820191906000526020600020905b81548152906001019060200180831161049857829003601f168201915b5050505050908060010154908060020160009054906101000a900473ffffffffffffffffffffffffffffffffffffffff16908060030154905084565b565b60016020528060005260406000206000915054906101000a900460ff1681565b60018060008073ffffffffffffffffffffffffffffffffffffffff16815260200190815260200160002060006101000a81548160ff021916908315150217905550565b600160003373ffffffffffffffffffffffffffffffffffffffff1673ffffffffffffffffffffffffffffffffffffffff16815260200190815260200160002060009054906101000a900460ff1615156105ae57600080fd5b6000600660020160009054906101000a900473ffffffffffffffffffffffffffffffffffffffff1673ffffffffffffffffffffffffffffffffffffffff16141515156105f957600080fd5b33600660020160006101000a81548173ffffffffffffffffffffffffffffffffffffffff021916908373ffffffffffffffffffffffffffffffffffffffff1602179055508060066000019080519060200190610656929190610744565b5050565b60006020528060005260406000206000915090508060000154908060010160009054906101000a900460ff16908060010160019054906101000a900473ffffffffffffffffffffffffffffffffffffffff16908060020154905084565b60045481565b600260009054906101000a900473ffffffffffffffffffffffffffffffffffffffff1681565b60035481565b600160003373ffffffffffffffffffffffffffffffffffffffff1673ffffffffffffffffffffffffffffffffffffffff16815260200190815260200160002060009054906101000a900460ff16151561074157600080fd5b50565b828054600181600116156101000203166002900490600052602060002090601f016020900481019282601f1061078557805160ff19168380011785556107b3565b828001600101855582156107b3579182015b828111156107b2578251825591602001919060010190610797565b5b5090506107c091906107c4565b5090565b6107e691905b808211156107e25760008160009055506001016107ca565b5090565b905600a165627a7a72305820fe7ae059ac4e96c0d29ba083a47c1f1e2e04bd7eabd8ae65c096fc9a227578a60029",
  "source": "pragma solidity ^0.4.22;\n\ncontract Consortium{\n\n  struct Voter{\n\n    uint weight;\n    bool voted; //is true, person already voted\n    address delegate; //person delegated to\n    uint vote; // index of the vote proposal\n  }\n\n  struct Proposal{\n    string title; //short name\n    uint voteCount; //number of acumulated votes\n    address creator;\n    uint votes;\n  }\n\n  mapping (address => Voter) public voters;\n  mapping (address => bool) public entities;\n\n  address public voterEntity;\n  uint public quota;\n  uint public numEntities;\n\n  Proposal[] public proposals;\n  Proposal actualProposal;\n\n  function Consortium(){\n    quota = 2000;\n    numEntities = 0;\n  }\n\n   modifier onlyEntity(){\n     require(entities[msg.sender]);\n     _;\n   }\n\n   function AddEntity() public {\n     entities[0] = true;\n   }\n\n\n\n\n   function RemoveEntity() public  {\n   }\n\n   function Propose(string title) public onlyEntity  {\n      require(actualProposal.creator != 0x0);\n      actualProposal.creator = msg.sender;\n      actualProposal.title = title;\n\n   }\n\n   function Vote(bool positive) public onlyEntity {\n\n   }\n\n}\n",
  "sourcePath": "/home/diego/CriptoProject/TruffleProject/contracts/Consortium.sol",
  "compiler": {
    "name": "solc",
    "version": "0.4.23+commit.124ca40d.Emscripten.clang"
  },
  "schemaVersion": "2.0.0",
  "updatedAt": "2018-06-04T18:57:24.831Z"
}