{
  "contractName": "Consortium",
  "abi": [
    {
      "constant": true,
      "inputs": [
        {
          "name": "",
          "type": "uint256"
        }
      ],
      "name": "FriendAddresses",
      "outputs": [
        {
          "name": "",
          "type": "address"
        }
      ],
      "payable": false,
      "stateMutability": "view",
      "type": "function"
    },
    {
      "constant": true,
      "inputs": [
        {
          "name": "",
          "type": "uint256"
        }
      ],
      "name": "entryRefundAdresses",
      "outputs": [
        {
          "name": "",
          "type": "address"
        }
      ],
      "payable": false,
      "stateMutability": "view",
      "type": "function"
    },
    {
      "constant": true,
      "inputs": [
        {
          "name": "",
          "type": "uint256"
        }
      ],
      "name": "alreadyVoted",
      "outputs": [
        {
          "name": "",
          "type": "address"
        }
      ],
      "payable": false,
      "stateMutability": "view",
      "type": "function"
    },
    {
      "inputs": [
        {
          "name": "_entryCost",
          "type": "uint256"
        }
      ],
      "payable": true,
      "stateMutability": "payable",
      "type": "constructor"
    },
    {
      "constant": false,
      "inputs": [],
      "name": "registerAddress",
      "outputs": [],
      "payable": true,
      "stateMutability": "payable",
      "type": "function"
    },
    {
      "constant": false,
      "inputs": [
        {
          "name": "name",
          "type": "bytes32"
        },
        {
          "name": "cost",
          "type": "uint256"
        }
      ],
      "name": "VoteNonExistentMovie",
      "outputs": [],
      "payable": false,
      "stateMutability": "nonpayable",
      "type": "function"
    },
    {
      "constant": false,
      "inputs": [],
      "name": "viewMovieProposals",
      "outputs": [
        {
          "components": [
            {
              "name": "id",
              "type": "uint256"
            },
            {
              "name": "name",
              "type": "bytes32"
            },
            {
              "name": "isWinProposal",
              "type": "bool"
            },
            {
              "name": "voters",
              "type": "address[]"
            },
            {
              "name": "ticketCost",
              "type": "uint256"
            }
          ],
          "name": "movieProposals",
          "type": "tuple[]"
        }
      ],
      "payable": false,
      "stateMutability": "nonpayable",
      "type": "function"
    },
    {
      "constant": false,
      "inputs": [
        {
          "name": "idMovieProposal",
          "type": "uint256"
        }
      ],
      "name": "VoteExistentMovie",
      "outputs": [],
      "payable": false,
      "stateMutability": "nonpayable",
      "type": "function"
    },
    {
      "constant": false,
      "inputs": [
        {
          "name": "idMovieProposal",
          "type": "uint256"
        }
      ],
      "name": "finishProposal",
      "outputs": [],
      "payable": false,
      "stateMutability": "nonpayable",
      "type": "function"
    },
    {
      "constant": false,
      "inputs": [],
      "name": "finishVotation",
      "outputs": [],
      "payable": false,
      "stateMutability": "nonpayable",
      "type": "function"
    },
    {
      "constant": false,
      "inputs": [],
      "name": "verifyWinner",
      "outputs": [],
      "payable": false,
      "stateMutability": "nonpayable",
      "type": "function"
    },
    {
      "constant": false,
      "inputs": [
        {
          "name": "losers",
          "type": "address[]"
        },
        {
          "name": "cost",
          "type": "uint256"
        }
      ],
      "name": "refund",
      "outputs": [
        {
          "name": "",
          "type": "bool"
        }
      ],
      "payable": false,
      "stateMutability": "nonpayable",
      "type": "function"
    },
    {
      "constant": false,
      "inputs": [
        {
          "name": "voters",
          "type": "address[]"
        },
        {
          "name": "cost",
          "type": "uint256"
        }
      ],
      "name": "payTickets",
      "outputs": [
        {
          "name": "",
          "type": "bool"
        }
      ],
      "payable": false,
      "stateMutability": "nonpayable",
      "type": "function"
    },
    {
      "constant": false,
      "inputs": [
        {
          "name": "organizer",
          "type": "address"
        }
      ],
      "name": "refundToFriends",
      "outputs": [
        {
          "name": "success",
          "type": "bool"
        }
      ],
      "payable": false,
      "stateMutability": "nonpayable",
      "type": "function"
    }
  ],
  "bytecode": "0x608060405260405160208062001b1983398101806040526200002591908101906200017e565b8060048190555060045434101515156200003e57600080fd5b6004543410151562000095573373ffffffffffffffffffffffffffffffffffffffff166108fc6004549081150290604051600060405180830381858888f1935050505015801562000093573d6000803e3d6000fd5b505b60003390806001815401808255809150509060018203906000526020600020016000909192909190916101000a81548173ffffffffffffffffffffffffffffffffffffffff021916908373ffffffffffffffffffffffffffffffffffffffff1602179055505060013390806001815401808255809150509060018203906000526020600020016000909192909190916101000a81548173ffffffffffffffffffffffffffffffffffffffff021916908373ffffffffffffffffffffffffffffffffffffffff1602179055505050620001b4565b6000620001768251620001aa565b905092915050565b6000602082840312156200019157600080fd5b6000620001a18482850162000168565b91505092915050565b6000819050919050565b61195580620001c46000396000f3006080604052600436106100c5576000357c0100000000000000000000000000000000000000000000000000000000900463ffffffff1680631832425f146100ca5780631ba0b33e146100d45780632529f22f146100eb57806327393278146101285780633fc532dd1461015157806347aebdf71461018e57806361ea4e45146101b95780638c63efc4146101f6578063b1e7a1f014610233578063dd852a7414610270578063e266ff2314610299578063efed4306146102b0578063fe43b241146102d9575b600080fd5b6100d2610316565b005b3480156100e057600080fd5b506100e961044c565b005b3480156100f757600080fd5b50610112600480360361010d9190810190611492565b6104eb565b60405161011f91906117b7565b60405180910390f35b34801561013457600080fd5b5061014f600480360361014a919081019061154b565b610545565b005b34801561015d57600080fd5b506101786004803603610173919081019061154b565b610861565b604051610185919061174a565b60405180910390f35b34801561019a57600080fd5b506101a361089f565b6040516101b09190611795565b60405180910390f35b3480156101c557600080fd5b506101e060048036036101db919081019061154b565b6108a7565b6040516101ed919061174a565b60405180910390f35b34801561020257600080fd5b5061021d60048036036102189190810190611492565b6108e5565b60405161022a91906117b7565b60405180910390f35b34801561023f57600080fd5b5061025a6004803603610255919081019061154b565b610950565b604051610267919061174a565b60405180910390f35b34801561027c57600080fd5b506102976004803603610292919081019061150f565b61098e565b005b3480156102a557600080fd5b506102ae610b5e565b005b3480156102bc57600080fd5b506102d760048036036102d2919081019061154b565b610e9a565b005b3480156102e557600080fd5b5061030060048036036102fb9190810190611469565b6111a9565b60405161030d91906117b7565b60405180910390f35b600454341015151561032757600080fd5b6004543410151561037e573373ffffffffffffffffffffffffffffffffffffffff166108fc60045434039081150290604051600060405180830381858888f1935050505015801561037c573d6000803e3d6000fd5b505b60003390806001815401808255809150509060018203906000526020600020016000909192909190916101000a81548173ffffffffffffffffffffffffffffffffffffffff021916908373ffffffffffffffffffffffffffffffffffffffff1602179055505060013390806001815401808255809150509060018203906000526020600020016000909192909190916101000a81548173ffffffffffffffffffffffffffffffffffffffff021916908373ffffffffffffffffffffffffffffffffffffffff16021790555050565b6000806001600260008054905081151561046257fe5b040191505b6002805490508110156104e7578160028281548110151561048457fe5b9060005260206000209060050201600301805490501015156104da5760016002828154811015156104b157fe5b906000526020600020906005020160020160006101000a81548160ff0219169083151502179055505b8080600101915050610467565b5050565b60008260008151811015156104fc57fe5b9060200190602002015173ffffffffffffffffffffffffffffffffffffffff166108fc845184029081150290604051600060405180830381858888f19350505050905092915050565b60028181548110151561055457fe5b9060005260206000209060050201600301600081548110151561057357fe5b9060005260206000200160009054906101000a900473ffffffffffffffffffffffffffffffffffffffff1673ffffffffffffffffffffffffffffffffffffffff163373ffffffffffffffffffffffffffffffffffffffff161415156105d757600080fd5b3073ffffffffffffffffffffffffffffffffffffffff16631ba0b33e6040518163ffffffff167c0100000000000000000000000000000000000000000000000000000000028152600401600060405180830381600087803b15801561063b57600080fd5b505af115801561064f573d6000803e3d6000fd5b505050506001151560028281548110151561066657fe5b906000526020600020906005020160020160009054906101000a900460ff161515141561070e573073ffffffffffffffffffffffffffffffffffffffff1663e266ff236040518163ffffffff167c0100000000000000000000000000000000000000000000000000000000028152600401600060405180830381600087803b1580156106f157600080fd5b505af1158015610705573d6000803e3d6000fd5b5050505061085e565b3073ffffffffffffffffffffffffffffffffffffffff16638c63efc460028381548110151561073957fe5b906000526020600020906005020160030160028481548110151561075957fe5b9060005260206000209060050201600401546040518363ffffffff167c01000000000000000000000000000000000000000000000000000000000281526004016107a4929190611765565b602060405180830381600087803b1580156107be57600080fd5b505af11580156107d2573d6000803e3d6000fd5b505050506040513d601f19601f820116820180604052506107f691908101906114e6565b151561080157600080fd5b60028181548110151561081057fe5b906000526020600020906005020160008082016000905560018201600090556002820160006101000a81549060ff0219169055600382016000610853919061124c565b600482016000905550505b50565b60008181548110151561087057fe5b906000526020600020016000915054906101000a900473ffffffffffffffffffffffffffffffffffffffff1681565b606080905090565b6001818154811015156108b657fe5b906000526020600020016000915054906101000a900473ffffffffffffffffffffffffffffffffffffffff1681565b60008060028054905081101561094857838181518110151561090357fe5b9060200190602002015173ffffffffffffffffffffffffffffffffffffffff166108fc849081150290604051600060405180830381858888f193505050509150610949565b5b5092915050565b60038181548110151561095f57fe5b906000526020600020016000915054906101000a900473ffffffffffffffffffffffffffffffffffffffff1681565b600061099861126d565b813390806001815401808255809150509060018203906000526020600020016000909192909190916101000a81548173ffffffffffffffffffffffffffffffffffffffff021916908373ffffffffffffffffffffffffffffffffffffffff1602179055505060a06040519081016040528060028054905081526020018560001916815260200160001515815260200183805480602002602001604051908101604052809291908181526020018280548015610aa857602002820191906000526020600020905b8160009054906101000a900473ffffffffffffffffffffffffffffffffffffffff1673ffffffffffffffffffffffffffffffffffffffff1681526020019060010190808311610a5e575b5050505050815260200184815250905060028190806001815401808255809150509060018203906000526020600020906005020160009091929091909150600082015181600001556020820151816001019060001916905560408201518160020160006101000a81548160ff0219169083151502179055506060820151816003019080519060200190610b3c9291906112a2565b50608082015181600401555050508234141515610b5857600080fd5b50505050565b60005b600280549050811015610e975760001515600282815481101515610b8157fe5b906000526020600020906005020160020160009054906101000a900460ff1615151415610ca0573073ffffffffffffffffffffffffffffffffffffffff16638c63efc4600283815481101515610bd357fe5b9060005260206000209060050201600301600284815481101515610bf357fe5b9060005260206000209060050201600401546040518363ffffffff167c0100000000000000000000000000000000000000000000000000000000028152600401610c3e929190611765565b602060405180830381600087803b158015610c5857600080fd5b505af1158015610c6c573d6000803e3d6000fd5b505050506040513d601f19601f82011682018060405250610c9091908101906114e6565b1515610c9b57600080fd5b610e8a565b3073ffffffffffffffffffffffffffffffffffffffff1663fe43b241600283815481101515610ccb57fe5b90600052602060002090600502016003016000815481101515610cea57fe5b9060005260206000200160009054906101000a900473ffffffffffffffffffffffffffffffffffffffff166040518263ffffffff167c0100000000000000000000000000000000000000000000000000000000028152600401610d4d919061174a565b602060405180830381600087803b158015610d6757600080fd5b505af1158015610d7b573d6000803e3d6000fd5b505050506040513d601f19601f82011682018060405250610d9f91908101906114e6565b503073ffffffffffffffffffffffffffffffffffffffff16632529f22f600283815481101515610dcb57fe5b9060005260206000209060050201600301600284815481101515610deb57fe5b9060005260206000209060050201600401546040518363ffffffff167c0100000000000000000000000000000000000000000000000000000000028152600401610e36929190611765565b602060405180830381600087803b158015610e5057600080fd5b505af1158015610e64573d6000803e3d6000fd5b505050506040513d601f19601f82011682018060405250610e8891908101906114e6565b505b8080600101915050610b61565b50565b600080600080600285815481101515610eaf57fe5b90600052602060002090600502016004015434141515610ece57600080fd5b600093505b600080549050831015611094573373ffffffffffffffffffffffffffffffffffffffff16600084815481101515610f0657fe5b9060005260206000200160009054906101000a900473ffffffffffffffffffffffffffffffffffffffff1673ffffffffffffffffffffffffffffffffffffffff161415610f565760019350611094565b831515610f6257600080fd5b600091505b600380549050811015611087573373ffffffffffffffffffffffffffffffffffffffff16600382815481101515610f9a57fe5b9060005260206000200160009054906101000a900473ffffffffffffffffffffffffffffffffffffffff1673ffffffffffffffffffffffffffffffffffffffff161415610fea5760019150611087565b811515610ff657600080fd5b60028581548110151561100557fe5b90600052602060002090600502016003013390806001815401808255809150509060018203906000526020600020016000909192909190916101000a81548173ffffffffffffffffffffffffffffffffffffffff021916908373ffffffffffffffffffffffffffffffffffffffff160217905550508080600101915050610f67565b8280600101935050610ed3565b60006003805490506000805490500314156111a2573073ffffffffffffffffffffffffffffffffffffffff16631ba0b33e6040518163ffffffff167c0100000000000000000000000000000000000000000000000000000000028152600401600060405180830381600087803b15801561110d57600080fd5b505af1158015611121573d6000803e3d6000fd5b505050503073ffffffffffffffffffffffffffffffffffffffff1663e266ff236040518163ffffffff167c0100000000000000000000000000000000000000000000000000000000028152600401600060405180830381600087803b15801561118957600080fd5b505af115801561119d573d6000803e3d6000fd5b505050505b5050505050565b6000808273ffffffffffffffffffffffffffffffffffffffff166108fc600454600180549050029081150290604051600060405180830381858888f1935050505091505b6001805490508110156112435760018181548110151561120957fe5b9060005260206000200160006101000a81549073ffffffffffffffffffffffffffffffffffffffff021916905580806001019150506111ed565b81915050919050565b508054600082559060005260206000209081019061126a919061132c565b50565b60a060405190810160405280600081526020016000801916815260200160001515815260200160608152602001600081525090565b82805482825590600052602060002090810192821561131b579160200282015b8281111561131a5782518260006101000a81548173ffffffffffffffffffffffffffffffffffffffff021916908373ffffffffffffffffffffffffffffffffffffffff160217905550916020019190600101906112c2565b5b5090506113289190611351565b5090565b61134e91905b8082111561134a576000816000905550600101611332565b5090565b90565b61139191905b8082111561138d57600081816101000a81549073ffffffffffffffffffffffffffffffffffffffff021916905550600101611357565b5090565b90565b60006113a082356118db565b905092915050565b600082601f83011215156113bb57600080fd5b81356113ce6113c9826117ff565b6117d2565b915081818352602084019350602081019050838560208402820111156113f357600080fd5b60005b8381101561142357816114098882611394565b8452602084019350602083019250506001810190506113f6565b5050505092915050565b600061143982516118fb565b905092915050565b600061144d8235611907565b905092915050565b60006114618235611911565b905092915050565b60006020828403121561147b57600080fd5b600061148984828501611394565b91505092915050565b600080604083850312156114a557600080fd5b600083013567ffffffffffffffff8111156114bf57600080fd5b6114cb858286016113a8565b92505060206114dc85828601611455565b9150509250929050565b6000602082840312156114f857600080fd5b60006115068482850161142d565b91505092915050565b6000806040838503121561152257600080fd5b600061153085828601611441565b925050602061154185828601611455565b9150509250929050565b60006020828403121561155d57600080fd5b600061156b84828501611455565b91505092915050565b61157d8161189b565b82525050565b600061158e82611853565b8084526020840193506115a083611827565b60005b828110156115d2576115b6868351611574565b6115bf82611874565b91506020860195506001810190506115a3565b50849250505092915050565b60006115e98261185e565b8084526020840193506115fb83611834565b60005b8281101561162d57611611868354611574565b61161a82611881565b91506020860195506001810190506115fe565b50849250505092915050565b600061164482611869565b8084526020840193508360208202850161165d85611846565b60005b848110156116965783830388526116788383516116c5565b92506116838261188e565b9150602088019750600181019050611660565b508196508694505050505092915050565b6116b0816118bb565b82525050565b6116bf816118c7565b82525050565b600060a0830160008301516116dd600086018261173b565b5060208301516116f060208601826116b6565b50604083015161170360408601826116a7565b506060830151848203606086015261171b8282611583565b9150506080830151611730608086018261173b565b508091505092915050565b611744816118d1565b82525050565b600060208201905061175f6000830184611574565b92915050565b6000604082019050818103600083015261177f81856115de565b905061178e602083018461173b565b9392505050565b600060208201905081810360008301526117af8184611639565b905092915050565b60006020820190506117cc60008301846116a7565b92915050565b6000604051905081810181811067ffffffffffffffff821117156117f557600080fd5b8060405250919050565b600067ffffffffffffffff82111561181657600080fd5b602082029050602081019050919050565b6000602082019050919050565b60008160005260206000209050919050565b6000602082019050919050565b600081519050919050565b600081549050919050565b600081519050919050565b6000602082019050919050565b6000600182019050919050565b6000602082019050919050565b600073ffffffffffffffffffffffffffffffffffffffff82169050919050565b60008115159050919050565b6000819050919050565b6000819050919050565b600073ffffffffffffffffffffffffffffffffffffffff82169050919050565b60008115159050919050565b6000819050919050565b60008190509190505600a265627a7a7230582027ba0bcb863b721041be49032f89008965d1d477157524f898f7555f7b63b6956c6578706572696d656e74616cf50037",
  "source": "pragma solidity ^0.4.23;\npragma experimental ABIEncoderV2;\ncontract Consortium {\n\naddress[] public FriendAddresses;\naddress[] public entryRefundAdresses;\nmovieProposal[] movieProposals;\naddress[] public alreadyVoted;\nuint entryCost;\n\n\n\nstruct movieProposal {\n  uint id;\n  bytes32 name;\n  bool isWinProposal;\n  address[] voters;\n  uint ticketCost;\n}\n\n\nconstructor(uint _entryCost) public payable {\n    entryCost = _entryCost;\n    require(msg.value >=entryCost);\n    if(msg.value >= entryCost){\n    msg.sender.transfer(entryCost);\n    }\nFriendAddresses.push(msg.sender);\nentryRefundAdresses.push(msg.sender);\n}\n\n\n\nfunction registerAddress() public payable {\n    require(msg.value >= entryCost);\n    if(msg.value >= entryCost){\n    msg.sender.transfer(msg.value-entryCost);\n    }\nFriendAddresses.push(msg.sender);\nentryRefundAdresses.push(msg.sender);\n}\n\nfunction VoteNonExistentMovie(bytes32 name, uint cost ) public {\n    address[] voters;\n    voters.push(msg.sender);\n    movieProposal memory newProposal = movieProposal(movieProposals.length, name, false, voters, cost);\n    movieProposals.push(newProposal);\n  require(msg.value == cost);\n  }\nfunction viewMovieProposals() public returns (movieProposal[] movieProposals)\n{\n  return movieProposals;\n}\nfunction VoteExistentMovie(uint idMovieProposal)\n{\n    require(msg.value == movieProposals[idMovieProposal].ticketCost);\n    bool isFriend = false;\n    for(uint i; i < FriendAddresses.length; i++)\n    {\n        if(FriendAddresses[i] == msg.sender)\n    {\n    isFriend = true;\n    break;\n\n    }\n    require(isFriend);\n    bool canVote = false;\n    for(uint j; j < alreadyVoted.length; j++)\n    {\n        if(alreadyVoted[j] == msg.sender)\n    {\n        canVote= true;\n        break;\n\n    }\n    require(canVote);\n    movieProposals[idMovieProposal].voters.push(msg.sender);\n    }\n    }\n    if(FriendAddresses.length-alreadyVoted.length == 0)\n    {\n    this.verifyWinner();\n    this.finishVotation();\n    }\n}\n\nfunction finishProposal(uint idMovieProposal) public\n{\n    require(msg.sender == movieProposals[idMovieProposal].voters[0]);\n    this.verifyWinner();\n    if(movieProposals[idMovieProposal].isWinProposal == true)\n    {\n        this.finishVotation();\n    }\n    else\n    {\n        require(this.refund(movieProposals[idMovieProposal].voters, movieProposals[idMovieProposal].ticketCost));\n    delete movieProposals[idMovieProposal];\n    }\n}\n//fn de concluir cuando todos votaron\nfunction finishVotation()\n{\n    for(uint i; i < movieProposals.length; i++)\n{\n        if(movieProposals[i].isWinProposal == false)\n{\n    require(this.refund(movieProposals[i].voters, movieProposals[i].ticketCost));\n}\nelse//propuesta ganadora\n{\n        this.refundToFriends(movieProposals[i].voters[0]);\n    this.payTickets(movieProposals[i].voters, movieProposals[i].ticketCost);\n}\n}\n}\n\n\nfunction verifyWinner()\n{\n    uint fiftyPlusOne = (uint(FriendAddresses.length)/2)+1;\n    for(uint i; i< movieProposals.length; i++)\n{\n        if(movieProposals[i].voters.length >= fiftyPlusOne)\n{\n            movieProposals[i].isWinProposal = true;\n}\n}\n}\nfunction refund(address[] losers, uint cost) returns(bool)\n{\n    for(uint i; i < movieProposals.length; i++)\n{\n        return losers[i].send(cost);\n}\n}\n\n\nfunction payTickets(address[] voters, uint cost) returns(bool)\n{\n    return voters[0].send(cost*voters.length);\n}\n\nfunction refundToFriends(address organizer) returns(bool success)\n{\n    success = organizer.send(entryRefundAdresses.length * entryCost);\n    for(uint i; i<entryRefundAdresses.length; i++)\n{\n        delete entryRefundAdresses[i];\n}\nreturn success;\n}\n}\n",
  "sourcePath": "/home/diego/CriptoProject/contracts/Consortium.sol",
  "compiler": {
    "name": "solc",
    "version": "0.4.23+commit.124ca40d.Emscripten.clang"
  },
  "schemaVersion": "2.0.0",
  "updatedAt": "2018-06-11T16:58:51.304Z"
}