{
  "contractName": "Consortium",
  "abi": [
    {
      "constant": true,
      "inputs": [
        {
          "name": "",
          "type": "uint256"
        }
      ],
      "name": "FriendAddresses",
      "outputs": [
        {
          "name": "",
          "type": "address"
        }
      ],
      "payable": false,
      "stateMutability": "view",
      "type": "function"
    },
    {
      "constant": true,
      "inputs": [
        {
          "name": "",
          "type": "uint256"
        }
      ],
      "name": "entryRefundAdresses",
      "outputs": [
        {
          "name": "",
          "type": "address"
        }
      ],
      "payable": false,
      "stateMutability": "view",
      "type": "function"
    },
    {
      "constant": true,
      "inputs": [
        {
          "name": "",
          "type": "uint256"
        }
      ],
      "name": "alreadyVoted",
      "outputs": [
        {
          "name": "",
          "type": "address"
        }
      ],
      "payable": false,
      "stateMutability": "view",
      "type": "function"
    },
    {
      "inputs": [],
      "payable": true,
      "stateMutability": "payable",
      "type": "constructor"
    },
    {
      "constant": false,
      "inputs": [],
      "name": "registerAddress",
      "outputs": [],
      "payable": true,
      "stateMutability": "payable",
      "type": "function"
    },
    {
      "constant": false,
      "inputs": [
        {
          "name": "name",
          "type": "bytes32"
        },
        {
          "name": "cost",
          "type": "uint256"
        }
      ],
      "name": "VoteNonExistentMovie",
      "outputs": [],
      "payable": false,
      "stateMutability": "nonpayable",
      "type": "function"
    },
    {
      "constant": false,
      "inputs": [],
      "name": "viewMovieProposals",
      "outputs": [
        {
          "components": [
            {
              "name": "id",
              "type": "uint256"
            },
            {
              "name": "name",
              "type": "bytes32"
            },
            {
              "name": "isWinProposal",
              "type": "bool"
            },
            {
              "name": "voters",
              "type": "address[]"
            },
            {
              "name": "ticketCost",
              "type": "uint256"
            }
          ],
          "name": "movieProposals",
          "type": "tuple[]"
        }
      ],
      "payable": false,
      "stateMutability": "nonpayable",
      "type": "function"
    },
    {
      "constant": false,
      "inputs": [
        {
          "name": "idMovieProposal",
          "type": "uint256"
        }
      ],
      "name": "VoteExistentMovie",
      "outputs": [],
      "payable": false,
      "stateMutability": "nonpayable",
      "type": "function"
    },
    {
      "constant": false,
      "inputs": [
        {
          "name": "idMovieProposal",
          "type": "uint256"
        }
      ],
      "name": "finishProposal",
      "outputs": [],
      "payable": false,
      "stateMutability": "nonpayable",
      "type": "function"
    },
    {
      "constant": false,
      "inputs": [],
      "name": "finishVotation",
      "outputs": [],
      "payable": false,
      "stateMutability": "nonpayable",
      "type": "function"
    },
    {
      "constant": false,
      "inputs": [],
      "name": "verifyWinner",
      "outputs": [],
      "payable": false,
      "stateMutability": "nonpayable",
      "type": "function"
    },
    {
      "constant": false,
      "inputs": [
        {
          "name": "losers",
          "type": "address[]"
        },
        {
          "name": "cost",
          "type": "uint256"
        }
      ],
      "name": "refund",
      "outputs": [
        {
          "name": "",
          "type": "bool"
        }
      ],
      "payable": false,
      "stateMutability": "nonpayable",
      "type": "function"
    },
    {
      "constant": false,
      "inputs": [
        {
          "name": "voters",
          "type": "address[]"
        },
        {
          "name": "cost",
          "type": "uint256"
        }
      ],
      "name": "payTickets",
      "outputs": [
        {
          "name": "",
          "type": "bool"
        }
      ],
      "payable": false,
      "stateMutability": "nonpayable",
      "type": "function"
    },
    {
      "constant": false,
      "inputs": [
        {
          "name": "organizer",
          "type": "address"
        }
      ],
      "name": "refundToFriends",
      "outputs": [
        {
          "name": "success",
          "type": "bool"
        }
      ],
      "payable": false,
      "stateMutability": "nonpayable",
      "type": "function"
    },
    {
      "constant": true,
      "inputs": [],
      "name": "getTotalFriends",
      "outputs": [
        {
          "name": "",
          "type": "uint256"
        }
      ],
      "payable": false,
      "stateMutability": "view",
      "type": "function"
    },
    {
      "constant": true,
      "inputs": [],
      "name": "getTotalEntryRefundFriends",
      "outputs": [
        {
          "name": "",
          "type": "uint256"
        }
      ],
      "payable": false,
      "stateMutability": "view",
      "type": "function"
    },
    {
      "constant": true,
      "inputs": [],
      "name": "getTotalAlreadyVoted",
      "outputs": [
        {
          "name": "",
          "type": "uint256"
        }
      ],
      "payable": false,
      "stateMutability": "view",
      "type": "function"
    }
  ],
  "bytecode": "0x608060405260003411151561001357600080fd5b3460048190555060003390806001815401808255809150509060018203906000526020600020016000909192909190916101000a81548173ffffffffffffffffffffffffffffffffffffffff021916908373ffffffffffffffffffffffffffffffffffffffff1602179055505060013390806001815401808255809150509060018203906000526020600020016000909192909190916101000a81548173ffffffffffffffffffffffffffffffffffffffff021916908373ffffffffffffffffffffffffffffffffffffffff16021790555050611a48806100f56000396000f3006080604052600436106100e6576000357c0100000000000000000000000000000000000000000000000000000000900463ffffffff1680631832425f146100eb5780631ba0b33e146100f55780632529f22f1461010c57806327393278146101495780633c943819146101725780633fc532dd1461019d57806347aebdf7146101da57806361ea4e45146102055780638c63efc41461024257806398f319301461027f578063b1e7a1f0146102aa578063bb66f82d146102e7578063dd852a7414610312578063e266ff231461033b578063efed430614610352578063fe43b2411461037b575b600080fd5b6100f36103b8565b005b34801561010157600080fd5b5061010a6104ee565b005b34801561011857600080fd5b50610133600480360361012e919081019061156a565b61058d565b604051610140919061188f565b60405180910390f35b34801561015557600080fd5b50610170600480360361016b9190810190611623565b6105e7565b005b34801561017e57600080fd5b50610187610903565b60405161019491906118aa565b60405180910390f35b3480156101a957600080fd5b506101c460048036036101bf9190810190611623565b610915565b6040516101d19190611822565b60405180910390f35b3480156101e657600080fd5b506101ef610953565b6040516101fc919061186d565b60405180910390f35b34801561021157600080fd5b5061022c60048036036102279190810190611623565b61095b565b6040516102399190611822565b60405180910390f35b34801561024e57600080fd5b506102696004803603610264919081019061156a565b610999565b604051610276919061188f565b60405180910390f35b34801561028b57600080fd5b50610294610a04565b6040516102a191906118aa565b60405180910390f35b3480156102b657600080fd5b506102d160048036036102cc9190810190611623565b610a16565b6040516102de9190611822565b60405180910390f35b3480156102f357600080fd5b506102fc610a54565b60405161030991906118aa565b60405180910390f35b34801561031e57600080fd5b50610339600480360361033491908101906115e7565b610a66565b005b34801561034757600080fd5b50610350610c36565b005b34801561035e57600080fd5b5061037960048036036103749190810190611623565b610f72565b005b34801561038757600080fd5b506103a2600480360361039d9190810190611541565b611281565b6040516103af919061188f565b60405180910390f35b60045434101515156103c957600080fd5b60045434101515610420573373ffffffffffffffffffffffffffffffffffffffff166108fc60045434039081150290604051600060405180830381858888f1935050505015801561041e573d6000803e3d6000fd5b505b60003390806001815401808255809150509060018203906000526020600020016000909192909190916101000a81548173ffffffffffffffffffffffffffffffffffffffff021916908373ffffffffffffffffffffffffffffffffffffffff1602179055505060013390806001815401808255809150509060018203906000526020600020016000909192909190916101000a81548173ffffffffffffffffffffffffffffffffffffffff021916908373ffffffffffffffffffffffffffffffffffffffff16021790555050565b6000806001600260008054905081151561050457fe5b040191505b600280549050811015610589578160028281548110151561052657fe5b90600052602060002090600502016003018054905010151561057c57600160028281548110151561055357fe5b906000526020600020906005020160020160006101000a81548160ff0219169083151502179055505b8080600101915050610509565b5050565b600082600081518110151561059e57fe5b9060200190602002015173ffffffffffffffffffffffffffffffffffffffff166108fc845184029081150290604051600060405180830381858888f19350505050905092915050565b6002818154811015156105f657fe5b9060005260206000209060050201600301600081548110151561061557fe5b9060005260206000200160009054906101000a900473ffffffffffffffffffffffffffffffffffffffff1673ffffffffffffffffffffffffffffffffffffffff163373ffffffffffffffffffffffffffffffffffffffff1614151561067957600080fd5b3073ffffffffffffffffffffffffffffffffffffffff16631ba0b33e6040518163ffffffff167c0100000000000000000000000000000000000000000000000000000000028152600401600060405180830381600087803b1580156106dd57600080fd5b505af11580156106f1573d6000803e3d6000fd5b505050506001151560028281548110151561070857fe5b906000526020600020906005020160020160009054906101000a900460ff16151514156107b0573073ffffffffffffffffffffffffffffffffffffffff1663e266ff236040518163ffffffff167c0100000000000000000000000000000000000000000000000000000000028152600401600060405180830381600087803b15801561079357600080fd5b505af11580156107a7573d6000803e3d6000fd5b50505050610900565b3073ffffffffffffffffffffffffffffffffffffffff16638c63efc46002838154811015156107db57fe5b90600052602060002090600502016003016002848154811015156107fb57fe5b9060005260206000209060050201600401546040518363ffffffff167c010000000000000000000000000000000000000000000000000000000002815260040161084692919061183d565b602060405180830381600087803b15801561086057600080fd5b505af1158015610874573d6000803e3d6000fd5b505050506040513d601f19601f8201168201806040525061089891908101906115be565b15156108a357600080fd5b6002818154811015156108b257fe5b906000526020600020906005020160008082016000905560018201600090556002820160006101000a81549060ff02191690556003820160006108f59190611324565b600482016000905550505b50565b60008060008054905090508091505090565b60008181548110151561092457fe5b906000526020600020016000915054906101000a900473ffffffffffffffffffffffffffffffffffffffff1681565b606080905090565b60018181548110151561096a57fe5b906000526020600020016000915054906101000a900473ffffffffffffffffffffffffffffffffffffffff1681565b6000806002805490508110156109fc5783818151811015156109b757fe5b9060200190602002015173ffffffffffffffffffffffffffffffffffffffff166108fc849081150290604051600060405180830381858888f1935050505091506109fd565b5b5092915050565b60008060018054905090508091505090565b600381815481101515610a2557fe5b906000526020600020016000915054906101000a900473ffffffffffffffffffffffffffffffffffffffff1681565b60008060038054905090508091505090565b6000610a70611345565b813390806001815401808255809150509060018203906000526020600020016000909192909190916101000a81548173ffffffffffffffffffffffffffffffffffffffff021916908373ffffffffffffffffffffffffffffffffffffffff1602179055505060a06040519081016040528060028054905081526020018560001916815260200160001515815260200183805480602002602001604051908101604052809291908181526020018280548015610b8057602002820191906000526020600020905b8160009054906101000a900473ffffffffffffffffffffffffffffffffffffffff1673ffffffffffffffffffffffffffffffffffffffff1681526020019060010190808311610b36575b5050505050815260200184815250905060028190806001815401808255809150509060018203906000526020600020906005020160009091929091909150600082015181600001556020820151816001019060001916905560408201518160020160006101000a81548160ff0219169083151502179055506060820151816003019080519060200190610c1492919061137a565b50608082015181600401555050508234141515610c3057600080fd5b50505050565b60005b600280549050811015610f6f5760001515600282815481101515610c5957fe5b906000526020600020906005020160020160009054906101000a900460ff1615151415610d78573073ffffffffffffffffffffffffffffffffffffffff16638c63efc4600283815481101515610cab57fe5b9060005260206000209060050201600301600284815481101515610ccb57fe5b9060005260206000209060050201600401546040518363ffffffff167c0100000000000000000000000000000000000000000000000000000000028152600401610d1692919061183d565b602060405180830381600087803b158015610d3057600080fd5b505af1158015610d44573d6000803e3d6000fd5b505050506040513d601f19601f82011682018060405250610d6891908101906115be565b1515610d7357600080fd5b610f62565b3073ffffffffffffffffffffffffffffffffffffffff1663fe43b241600283815481101515610da357fe5b90600052602060002090600502016003016000815481101515610dc257fe5b9060005260206000200160009054906101000a900473ffffffffffffffffffffffffffffffffffffffff166040518263ffffffff167c0100000000000000000000000000000000000000000000000000000000028152600401610e259190611822565b602060405180830381600087803b158015610e3f57600080fd5b505af1158015610e53573d6000803e3d6000fd5b505050506040513d601f19601f82011682018060405250610e7791908101906115be565b503073ffffffffffffffffffffffffffffffffffffffff16632529f22f600283815481101515610ea357fe5b9060005260206000209060050201600301600284815481101515610ec357fe5b9060005260206000209060050201600401546040518363ffffffff167c0100000000000000000000000000000000000000000000000000000000028152600401610f0e92919061183d565b602060405180830381600087803b158015610f2857600080fd5b505af1158015610f3c573d6000803e3d6000fd5b505050506040513d601f19601f82011682018060405250610f6091908101906115be565b505b8080600101915050610c39565b50565b600080600080600285815481101515610f8757fe5b90600052602060002090600502016004015434141515610fa657600080fd5b600093505b60008054905083101561116c573373ffffffffffffffffffffffffffffffffffffffff16600084815481101515610fde57fe5b9060005260206000200160009054906101000a900473ffffffffffffffffffffffffffffffffffffffff1673ffffffffffffffffffffffffffffffffffffffff16141561102e576001935061116c565b83151561103a57600080fd5b600091505b60038054905081101561115f573373ffffffffffffffffffffffffffffffffffffffff1660038281548110151561107257fe5b9060005260206000200160009054906101000a900473ffffffffffffffffffffffffffffffffffffffff1673ffffffffffffffffffffffffffffffffffffffff1614156110c2576001915061115f565b8115156110ce57600080fd5b6002858154811015156110dd57fe5b90600052602060002090600502016003013390806001815401808255809150509060018203906000526020600020016000909192909190916101000a81548173ffffffffffffffffffffffffffffffffffffffff021916908373ffffffffffffffffffffffffffffffffffffffff16021790555050808060010191505061103f565b8280600101935050610fab565b600060038054905060008054905003141561127a573073ffffffffffffffffffffffffffffffffffffffff16631ba0b33e6040518163ffffffff167c0100000000000000000000000000000000000000000000000000000000028152600401600060405180830381600087803b1580156111e557600080fd5b505af11580156111f9573d6000803e3d6000fd5b505050503073ffffffffffffffffffffffffffffffffffffffff1663e266ff236040518163ffffffff167c0100000000000000000000000000000000000000000000000000000000028152600401600060405180830381600087803b15801561126157600080fd5b505af1158015611275573d6000803e3d6000fd5b505050505b5050505050565b6000808273ffffffffffffffffffffffffffffffffffffffff166108fc600454600180549050029081150290604051600060405180830381858888f1935050505091505b60018054905081101561131b576001818154811015156112e157fe5b9060005260206000200160006101000a81549073ffffffffffffffffffffffffffffffffffffffff021916905580806001019150506112c5565b81915050919050565b50805460008255906000526020600020908101906113429190611404565b50565b60a060405190810160405280600081526020016000801916815260200160001515815260200160608152602001600081525090565b8280548282559060005260206000209081019282156113f3579160200282015b828111156113f25782518260006101000a81548173ffffffffffffffffffffffffffffffffffffffff021916908373ffffffffffffffffffffffffffffffffffffffff1602179055509160200191906001019061139a565b5b5090506114009190611429565b5090565b61142691905b8082111561142257600081600090555060010161140a565b5090565b90565b61146991905b8082111561146557600081816101000a81549073ffffffffffffffffffffffffffffffffffffffff02191690555060010161142f565b5090565b90565b600061147882356119ce565b905092915050565b600082601f830112151561149357600080fd5b81356114a66114a1826118f2565b6118c5565b915081818352602084019350602081019050838560208402820111156114cb57600080fd5b60005b838110156114fb57816114e1888261146c565b8452602084019350602083019250506001810190506114ce565b5050505092915050565b600061151182516119ee565b905092915050565b600061152582356119fa565b905092915050565b60006115398235611a04565b905092915050565b60006020828403121561155357600080fd5b60006115618482850161146c565b91505092915050565b6000806040838503121561157d57600080fd5b600083013567ffffffffffffffff81111561159757600080fd5b6115a385828601611480565b92505060206115b48582860161152d565b9150509250929050565b6000602082840312156115d057600080fd5b60006115de84828501611505565b91505092915050565b600080604083850312156115fa57600080fd5b600061160885828601611519565b92505060206116198582860161152d565b9150509250929050565b60006020828403121561163557600080fd5b60006116438482850161152d565b91505092915050565b6116558161198e565b82525050565b600061166682611946565b8084526020840193506116788361191a565b60005b828110156116aa5761168e86835161164c565b61169782611967565b915060208601955060018101905061167b565b50849250505092915050565b60006116c182611951565b8084526020840193506116d383611927565b60005b82811015611705576116e986835461164c565b6116f282611974565b91506020860195506001810190506116d6565b50849250505092915050565b600061171c8261195c565b8084526020840193508360208202850161173585611939565b60005b8481101561176e57838303885261175083835161179d565b925061175b82611981565b9150602088019750600181019050611738565b508196508694505050505092915050565b611788816119ae565b82525050565b611797816119ba565b82525050565b600060a0830160008301516117b56000860182611813565b5060208301516117c8602086018261178e565b5060408301516117db604086018261177f565b50606083015184820360608601526117f3828261165b565b91505060808301516118086080860182611813565b508091505092915050565b61181c816119c4565b82525050565b6000602082019050611837600083018461164c565b92915050565b6000604082019050818103600083015261185781856116b6565b90506118666020830184611813565b9392505050565b600060208201905081810360008301526118878184611711565b905092915050565b60006020820190506118a4600083018461177f565b92915050565b60006020820190506118bf6000830184611813565b92915050565b6000604051905081810181811067ffffffffffffffff821117156118e857600080fd5b8060405250919050565b600067ffffffffffffffff82111561190957600080fd5b602082029050602081019050919050565b6000602082019050919050565b60008160005260206000209050919050565b6000602082019050919050565b600081519050919050565b600081549050919050565b600081519050919050565b6000602082019050919050565b6000600182019050919050565b6000602082019050919050565b600073ffffffffffffffffffffffffffffffffffffffff82169050919050565b60008115159050919050565b6000819050919050565b6000819050919050565b600073ffffffffffffffffffffffffffffffffffffffff82169050919050565b60008115159050919050565b6000819050919050565b60008190509190505600a265627a7a7230582067f189a331c4fb283a8a382be7b47c453c6f257a573a75d128f31eb5938c1b586c6578706572696d656e74616cf50037",
  "source": "pragma solidity ^0.4.23;\npragma experimental ABIEncoderV2;\ncontract Consortium {\n\naddress[] public FriendAddresses;\naddress[] public entryRefundAdresses;\nmovieProposal[] movieProposals;\naddress[] public alreadyVoted;\nuint entryCost;\n\n\nstruct movieProposal {\n  uint id;\n  bytes32 name;\n  bool isWinProposal;\n  address[] voters;\n  uint ticketCost;\n}\n\nconstructor() public payable {\n      require(msg.value > 0);\n      entryCost = msg.value;\n  FriendAddresses.push(msg.sender);\n  entryRefundAdresses.push(msg.sender);\n}\n\nfunction registerAddress() public payable {\n    require(msg.value >= entryCost);\n    if(msg.value >= entryCost){\n    msg.sender.transfer(msg.value-entryCost);\n    }\n    FriendAddresses.push(msg.sender);\n    entryRefundAdresses.push(msg.sender);\n}\n\nfunction VoteNonExistentMovie(bytes32 name, uint cost) public {\n  address[] voters;\n  voters.push(msg.sender);\n  movieProposal memory newProposal = movieProposal(movieProposals.length, name, false, voters, cost);\n  movieProposals.push(newProposal);\n  require(msg.value == cost);\n}\n\nfunction viewMovieProposals() public returns (movieProposal[] movieProposals)\n{\n return movieProposals;\n}\nfunction VoteExistentMovie(uint idMovieProposal)\n{\n    require(msg.value == movieProposals[idMovieProposal].ticketCost);\n    bool isFriend = false;\n    for(uint i; i < FriendAddresses.length; i++)\n    {\n        if(FriendAddresses[i] == msg.sender)\n        {\n            isFriend = true;\n            break;\n\n        }\n        require(isFriend);\n        bool canVote = false;\n        for(uint j; j < alreadyVoted.length; j++)\n        {\n            if(alreadyVoted[j] == msg.sender)\n            {\n              canVote= true;\n              break;\n\n            }\n            require(canVote);\n            movieProposals[idMovieProposal].voters.push(msg.sender);\n        }\n     }\n      if(FriendAddresses.length-alreadyVoted.length == 0)\n      {\n          this.verifyWinner();\n          this.finishVotation();\n      }\n}\n\nfunction finishProposal(uint idMovieProposal) public\n{\n    require(msg.sender == movieProposals[idMovieProposal].voters[0]);\n    this.verifyWinner();\n    if(movieProposals[idMovieProposal].isWinProposal == true)\n    {\n        this.finishVotation();\n    }\n    else\n    {\n      require(this.refund(movieProposals[idMovieProposal].voters, movieProposals[idMovieProposal].ticketCost));\n      delete movieProposals[idMovieProposal];\n    }\n}\n//fn de concluir cuando todos votaron\nfunction finishVotation()\n{\n    for(uint i; i < movieProposals.length; i++)\n    {\n        if(movieProposals[i].isWinProposal == false)\n        {\n          require(this.refund(movieProposals[i].voters, movieProposals[i].ticketCost));\n        }\n        else//propuesta ganadora\n        {\n        this.refundToFriends(movieProposals[i].voters[0]);\n        this.payTickets(movieProposals[i].voters, movieProposals[i].ticketCost);\n        }\n    }\n}\n\n\nfunction verifyWinner()\n{\n    uint fiftyPlusOne = (uint(FriendAddresses.length)/2)+1;\n    for(uint i; i< movieProposals.length; i++)\n    {\n        if(movieProposals[i].voters.length >= fiftyPlusOne)\n        {\n            movieProposals[i].isWinProposal = true;\n        }\n      }\n}\nfunction refund(address[] losers, uint cost) returns(bool)\n{\n    for(uint i; i < movieProposals.length; i++)\n    {\n        return losers[i].send(cost);\n    }\n}\n\n\nfunction payTickets(address[] voters, uint cost) returns(bool)\n{\n    return voters[0].send(cost*voters.length);\n}\n\nfunction refundToFriends(address organizer) returns(bool success)\n{\n    success = organizer.send(entryRefundAdresses.length * entryCost);\n    for(uint i; i<entryRefundAdresses.length; i++)\n    {\n        delete entryRefundAdresses[i];\n    }\n    return success;\n}\n\nfunction getTotalFriends() public view returns( uint ) {\n    uint totalFriends = FriendAddresses.length;\n\t\treturn totalFriends;\n}\nfunction getTotalEntryRefundFriends() public view returns( uint ) {\n    uint totalEntryRefundFriends = entryRefundAdresses.length;\n\t\treturn totalEntryRefundFriends;\n}\nfunction getTotalAlreadyVoted() public view returns( uint ) {\n    uint totalAlreadyVoted = alreadyVoted.length;\n    return totalAlreadyVoted;\n}\n}\n",
  "sourcePath": "/home/diego/CriptoProject/contracts/Consortium.sol",
  "compiler": {
    "name": "solc",
    "version": "0.4.23+commit.124ca40d.Emscripten.clang"
  },
  "schemaVersion": "2.0.0",
  "updatedAt": "2018-06-11T19:34:31.262Z"
}